:100000000E941E0010000590F491E02D0994E091EB
:100010000001F0E090910101808189278083FCCF6D
:10002000E0E0F1E085E2808380E2809301012D9899
:0C003000E081F0E08291806280830895FE
:10003C0011241FBEC0E0D8E0DEBFCDBF0E942D0052
:0E004C000E9439000E9442000E940700FFCF70
:10005A0011E0A0E0B1E0ECE9F0E002C005900D92F9
:10006A00A030B107D9F7089511E0A2E0B1E001C0CC
:0A007A001D92A230B107E1F70895CE
:1000840010E0C6E0D0E004C02297FE010E94030005
:08009400C430D107C9F708953B
:00000001FF
